:020000000134C9
:03000B00020048A8
:20003400758151758901D2AFD2A9D28C12005512001B80FBC28C438CD8438AF00508D28CE0
:2000540032746475F000C0E0C0F01210C615811581C2B3740075F000F50985F00A74007505
:20007400F000F51785F018748075F025C0E0C0F01210E31581158112113279467A13E98AD0
:20009400F0C0E0C0F01211061581158112021ED2B2746475F000C0E0C0F01210C6158115E1
:2000B400811201B9120231120CED1206E012079E1208CC120A30120B14120D0D120DD81248
:2000D40006421206601206031205A3120E3E12032B0200B5227F091211E6740078FC121164
:2000F400DAF6740075F00008F608A6F078FC1211DAE612120C7B0A1212031212E745F070C4
:200114000302016B801678FD1211DAE60886F01212A418F608A6F01212AD80D0741175F06F
:2001340000C0E0C0F012111A15811581121132C0E0C0F01211421581158178FC1211DAF655
:2001540008E60886F079F61211DF1211FC78FC1211DAE6F702011A78FD1211DAE60886F04E
:2001740079F61211DF1211FC7400F778FD1211DAE60886F07B007C001212DE45F0700302F7
:20019400019E74FF75F0FF0201B479F61211DFE98AF0C0E0C0F0121162158115810201B492
:2001B4007FF70211F5E598540175F0007B007C001212E745F070030201E1121132C0E0C033
:2001D400F012114215811581F5120201E574FFF51222E598540175F0007B007C001212E7C6
:2001F40045F07003020203121157F51202020774FFF5122279807A13E98AF0C0E0C0F012C9
:2002140011061581158112021E22797C7A13E98AF0C0E0C0F01211061581158122E512127E
:20023400120C7B0A1212031212DE45F0700302025A79467A13E98AF0C0E0C0F0121106159B
:2002540081158112021E220581740075F000F50985F00A78FE1211DAE612120C7B0A121211
:20027400031212E745F070030202B28012E509850AF01212A4F50985F00A1212AD80D41283
:20029400113278FE1211DAF6E509850AF0791F7A001211FC78FE1211DAE6F7020281E5093D
:2002B400850AF0791F7A001211FC7400F715812278F91211DAE6C39430F50CE50C75F00025
:2002D4007B097C0012130145F070030202E9E50CC39407F50CE50C75F0007B047C0012128A
:2002F40085F50C78F91211DAF60808E6C39430F50CE50C75F0007B097C0012130145F07061
:200314000302031FE50CC39407F50C78F91211DAE6450C75F00022E51212120C7B681212F8
:20033400031212DE45F070030205A2748575F013C0E0C0F0121106158115817400F551E59E
:200354005112120C7B001212031212DE45F0700302059F741175F000C0E0C0F012111A158A
:20037400811581791F7A00E98AF0C0E0C0F0743275F000C0E0C0F0121198158115811581B5
:200394001581741375F000C0E0C0F012111A15811581749675F013C0E0C0F0791F7A00E941
:2003B4008AF0C0E0C0F0743275F000C0E0C0F0740375F000120F717FFA1211E6740775F034
:2003D40000791F7A001211FCE712120CC0E0C0F0740875F000791F7A001211FCE712120C48
:2003F400C0E0C0F01202C41581158115811581F5517400F511740175F000791F7A0012119A
:20041400FCE712120CC0E0C0F0740275F000791F7A001211FCE712120CC0E0C0F01202C41A
:20043400158115811581158175F000F51985F01AE51175F0002519C5F0351AC5F0F5117482
:200454000375F000791F7A001211FCE712120CC0E0C0F0740475F000791F7A001211FCE793
:2004740012120CC0E0C0F01202C4158115811581158175F000F51385F014E51175F0002542
:2004940013C5F03514C5F0F511E5138514F07B087C00121285F51385F014740575F000796B
:2004B4001F7A001211FCE712120CC0E0C0F0740675F000791F7A001211FCE712120CC0E042
:2004D400C0F01202C4158115811581158175F0004513C5F04514C5F0F51385F014E513859A
:2004F40014F054FFC5F05400C5F02511C5F03400C5F0F511740075F000F50985F00AE509B5
:20051400850AF0AB19AC1A1212F145F070030205958012E509850AF01212A4F50985F00A21
:200534001212AD80D9E509850AF0C333C5F033C5F02409C5F03400C5F0791F7A001211FC81
:20055400E712120CC0E0C0F0E509850AF0C333C5F033C5F0240AC5F03400C5F0791F7A0042
:200574001211FCE712120CC0E0C0F01202C41581158115811581F50CE511250CF51102057C
:2005940027E511F42401F51102035312021E22E51212120C7B711212031212DE45F070037B
:2005B400020602D2B2C2B3D2B4D2B5C2A7D2B6C2B7740A75F000C0E0C0F01210C6158115E7
:2005D4008174FFF580E580F50C749D75F013C0E0C0F0E50C75F000C0E0C0F0740275F000DE
:2005F400120F71158115811581158112021E22E51212120C7B761212031212DE45F07003C0
:2006140002064174A375F013C0E0C0F012110615811581D2B374AE75F013C0E0C0F01211B7
:200634000615811581121132C2B312021E22E51212120C7B691212031212DE45F070030278
:20065400065F120B5912020812021E220581E51212120C7B621212031212DE45F0700302DE
:2006740006DD74CD75F013C0E0C0F012110615811581121132C0E0C0F012114215811581EF
:2006940078FE1211DAF6E612120C7B311212031212DE45F070030206B474A5F50C0206B8B4
:2006B4007455F50CE50CF5A0D2B7C2B6C2B5D2B4120ED6746475F000C0E0C0F01210C61558
:2006D40081158112020812021E158122E51212120C7B651212031212DE45F0700302079D6B
:2006F400E50E75F0007B527C001212DE45F07003020748D2B3746475F000C0E0C0F0121016
:20071400C615811581D2B4C2B5D2A7C2B6C2B7740A75F000C0E0C0F01210C6158115811213
:200734000ED6746475F000C0E0C0F01210C615811581C2B3E50E75F0007B937C001212DEC7
:2007540045F0700302079AD2B3746475F000C0E0C0F01210C615811581D2B4C2B5D2B6D2BD
:20077400B7740A75F000C0E0C0F01210C615811581120ED6746475F000C0E0C0F01210C6FC
:2007940015811581C2B312020822E51212120C7B771212031212DE45F070030208CBE50EB4
:2007B40075F0007B527C001212DE45F0700CE50E75F0007B937C001212DE45F0700302082E
:2007D400CBC2B3C2B4D2B5D2A7D2B6D2B7D2B2120EDFD2B3746475F000C0E0C0F01210C6C1
:2007F40015811581740075F000F51585F016740075F000F50985F00AE509850AF0AB17AC1A
:20081400181212F145F070030208B68012E509850AF01212A4F50985F00A1212AD80D9744D
:200834001175F000C0E0C0F012111A15811581E509850AF0F51385F014E50E75F0007B5252
:200854007C001212DE45F07003020869851390E5144480F5A0E50E75F0007B937C0012126B
:20087400DE45F07003020883851390E514F5A0120EDF121157F580741375F000C0E0C0F071
:2008940012111A15811581E5158516F02580C5F03400C5F0F51585F016120ED6120F28023D
:2008B4000821C2B3746475F000C0E0C0F01210C6158115811202082205810581E512121280
:2008D4000C7B721212031212DE45F0700302097E740075F000F51585F016D2B2C2B4C2B5D2
:2008F400C2A7D2B6D2B77431F50D740075F00078FD1211DAF608A6F078FD1211DAE60886FE
:20091400F0AB17AC181212F145F0700302097B801678FD1211DAE60886F01212A418F608C0
:20093400A6F01212AD80D178FD1211DAE60886F0F51385F014851390E514F5A07580FFE5F5
:20095400158516F02580C5F03400C5F0F51585F016E58075F000C0E0C0F0120983158115A8
:20097400811209AA020925120208158115812278FB1211DAE6F50BE50B75F0007B047C00DD
:20099400121293F50B1209CD78FB1211DAE6540FF50B1209CD221201E67B137C001212DEDC
:2009B40045F070030209CC1201E67B117C001212E745F060030209BB22E50B75F0007B093F
:2009D4007C0012130145F070030209F5E50B243775F000C0E0C0F012111A15811581020A44
:2009F40007E50B243075F000C0E0C0F012111A1581158122E58075F0007BFF7C001212E78D
:200A140045F07003020A2F7430F50DE51B851CF01212A4F51B85F01C1212AD22E512121231
:200A34000C7B6C1212031212DE45F07003020B1374DC75F013C0E0C0F01211061581158151
:200A5400740F75F014C0E0C0F012110615811581121157F50CE50C75F0007B797C0012127C
:200A7400DE45F07003020B00D2B3746475F000C0E0C0F01210C615811581D2B2D2B4D2B518
:200A9400D2A7D2B6D2B7120ED6746475F000C0E0C0F01210C615811581740575F000C0E0A3
:200AB400C0F01210C615811581C2B6C2B7120ED6746475F000C0E0C0F01210C615811581D6
:200AD400C2B5D2B6C2B7120ED6746475F000C0E0C0F01210C615811581742775F014C0E03F
:200AF400C0F012110615811581020B10743675F014C0E0C0F01211061581158112020822BA
:200B1400E51212120C7B631212031212DE45F07003020B58743D75F014C0E0C0F0E515858D
:200B340016F01212B72401C5F03400C5F0C0E0C0F0740275F000120F711581158115811569
:200B54008112020822C2B3D2B2C2B4C2B5C2B6C2B7743175F000F51385F014851390E5142F
:200B7400F5A0120EDF74FFF580E580F50EE50E75F0007B937C001212E745F07003020BB02B
:200B9400740075F001F51385F014851390E514F5A0120EDF74FFF580E580F50E22120B5939
:200BB400744D75F014C0E0C0F0E50E75F000C0E0C0F0740275F000120F71158115811581C0
:200BD4001581C2B374FFF580E580F50F22120BB1E50E75F000900C4A021215740075F01065
:200BF400F51985F01A020C6A740075F010F51985F01A020C6A740075F020F51985F01A0236
:200C14000C6A740075F020F51985F01A020C6A740075F050F51985F01A020C6A740075F025
:200C340050F51985F01A020C6A740075F000F51985F01A020C6A3D0CFF00300C6500230C35
:200C54005500160C6200090C5200FC0B6100EF0B510000006A0C740075F000F51585F016A9
:200C7400740075F000F51B85F01CC2B3D2B2C2B4C2B5D2B6D2B77431F50D740075F000F57A
:200C94000985F00AE509850AF0AB19AC1A1212F145F07003020CEC8012E509850AF01212E7
:200CB400A4F50985F00A1212AD80D9E509850AF0F51385F014851390E514F5A074FFF58039
:200CD400E5158516F02580C5F03400C5F0F51585F016120A08020CAD22E51212120C7B738D
:200CF4001212031212DE45F07003020D0C1200E9F51785F01812020822E51212120C7B6719
:200D14001212031212DE45F07003020DD7120BB1E50E75F0007BFF7C001212E745F0700339
:200D3400020DC4E50E75F0007B937C001212DE45F07003020D5A745075F014C0E0C0F01238
:200D5400110615811581E50E75F0007B527C001212DE45F07003020D7D746275F014C0E076
:200D7400C0F012110615811581747875F014C0E0C0F0E51B851CF0C0E0C0F0740275F000E9
:200D9400120F711581158115811581748C75F014C0E0C0F0E5178518F0C0E0C0F0740275C8
:200DB400F000120F711581158115811581020DD4749F75F014C0E0C0F01211061581158131
:200DD40012020822E51212120C7B701212031212DE45F07003020E3D120B59746475F000DE
:200DF400C0E0C0F01210C615811581740075F000F51B85F01C74B275F014C0E0C0F074524C
:200E140075F000C0E0C0F0E51B851CF0C0E0C0F0E5178518F0C0E0C0F0740475F000120F51
:200E3400717FF81211E612020822E51212120C7B3F1212031212DE45F07003020ED574BBA9
:200E540075F014C0E0C0F01211061581158174CB75F014C0E0C0F01211061581158174DDB2
:200E740075F014C0E0C0F01211061581158174F475F014C0E0C0F012110615811581740244
:200E940075F015C0E0C0F012110615811581741475F015C0E0C0F0121106158115817426DE
:200EB40075F015C0E0C0F012110615811581743575F015C0E0C0F012110615811581120223
:200ED4001E22C2B200000000D2B22205810581740075F00078FD1211DAF608A6F078FD1232
:200EF40011DAE60886F07B017C001212BE45F07003020F23801678FD1211DAE60886F0125B
:200F140012A418F608A6F01212AD80D1020F0A158115812205810581740075F00078FD1264
:200F340011DAF608A6F078FD1211DAE60886F07B0A7C001212BE45F07003020F6C80167832
:200F5400FD1211DAE60886F01212A418F608A6F01212AD80D1020F53158115812223F4259B
:200F740081F8868208868308E4FEFF93700122B42555A3E493B42D06430780A3E493B430C5
:200F94000343074024D0B40A00500CCE75F00AA42EFEA3E49380EDE493B46413E60886F008
:200FB40030F7084307201212B4A6F018F68003B4750543070A801CB478054307108014B494
:200FD4006F0B430708800C121120A3809BB462624307027A00C004C005C006C007AB07534B
:200FF400031F7C00E60886F0121252A6F018F6EDD007D006D005D0042430B43A00400224D6
:2010140007C0E00AE645F070CCA902EF30E506742D1211200A1210A7D0E0121120D9F9087B
:2010340008EF30E7A5EAC39E50A074201211200A80F3B4630BAA011210A7E612112080DF3C
:20105400B4732BC082C08386820886837A00E4936004A30A80F886831886821210A7E493A9
:20107400A3600512112080F6D083D08280B1B4691986017A00E76004090A80F91210A78668
:2010940001E7609B1211200980F7F97A011210A7E980A8EE601B8FF020F716C002EAC39E26
:2010B400500D742030F60274301211200A80EED0022278FB1211DA8603088604BB0004BCAA
:2010D40000012279E5A3D9FD1BBBFFF01C80F478FB1211DA8603088604748075F070121235
:2010F400521212B4758921F58DF58B7588597598522278FB1211DA8682088683E493602D2D
:20111400121120A380F678FB1211DAE63099FDC299F599B40A17740D80F2E430980C309812
:20113400FDC298E599B40D02740A75F0002278FB1211DAE63099FDC299F5992274FFF5F07F
:2011540030980A3098FDC298E59975F0002278FB1211DA8601E4FBFCFFE709B42D030FE7EA
:2011740009C39430B40A005012FA740A75F00012123E2AFBE5F03400FC80E4EB8CF0DF0395
:201194000212B42278FB1211DA860418188601E4FD121132B408028003B47F16ED60F21D84
:2011B4007408121120742012112074081211201980DF121120F724F36006090DEDB504D10A
:2011D400E4F7F5F0ED22C82581C822C92581C97A0022D083D082CF2581F581CFC082C0831C
:2011F40022CF2581F581CF2229F9E5F03AFA227C00CB30E7011CCB2275F00030E70215F0A5
:2012140022FDE493A3FEE493A3FF4E7009E493FE740193FF800BE493A3B5050BE493B5F0A1
:20123400068F838E82E473A380D8FEEBA4FD8EF0ECA4FCEB8EF0A4C5F02C2DC5F022C002D8
:20125400C001AAF0F97E007D007F11C3E933F9EA33FADF08F5F0E9D001D00222ED33FDEE27
:2012740033FEC3ED9BF5F0EE9C40E0ADF0FED380DBBB000122C333C5F033C5F0DBF722BB66
:20129400000122C3C5F013C5F013DBF7221212A404700205F0221212AD14B4FF0215F022BA
:2012B4001212ADF4C5F0F4C5F0221213114029801E12131140227017801E121311401070E5
:2012D40017800C121311501080051213256009E4F5F02212132560F7E4F5F00422121325C4
:2012F40040F680EB12132540EF70E480EB12132540DD70E480D912132550DD80D2C39BC501
:20131400F09C20E70720D207C345F02220D2F9D322C5F0C39C7003E5F09B22FBE493CB22B4
:20133400FCE493FB740193CC22FAE493F9740193CA220A20456173792D446F776E6C6F611A
:201354006465722056352E3020666F7220415438394335322F383953353220466C61736896
:20137400466C65784D4355000A203E000A206F6B000A776174696E67206865782066696C25
:2013940065000A2569202564000A25303862000A565050203D2B313256000A707265737322
:2013B40020616E79206B657920746F207475726E20565050206F6666000A426C6F636B20D6
:2013D40030206F7220313E000A7761726E696E67202120667572746865722070726F67728E
:2013F400616D6D696E672077696C6C2062652064697361626C65642E2E2E000A636C69631A
:201414006B2079657320746F20636F6E74696E75653E000A6C6F636B20636F6D706C65744F
:2014340065000A61626F7274000A2043484B53554D203D2025303478002578000A666F75AD
:201454006E642053535438394535315244000A666F756E64203839433532206F72203839E7
:20147400533532000A206E6F6E626C616E6B202575206279746573000A20627974657320AF
:20149400636F756E746572202575000A746172676574206E6F7420666F756E642000257883
:2014B4002C25752C2575000A206520657261736520626C6F636B000A20712072656164202B
:2014D4006C6F636B20626974000A207320736574206E756D626572206F6620627974650075
:2014F4000A2072207265616420636F6465000A206C206C6F636B2074686520636869700041
:201514000A206720676574206368697020696E666F000A2077207772697465206279746576
:13153400000A20622073657420626C6F636B20302F3100D1
:00000001FF
